{
	"CCIPSender_Unsafe.sol": {
		"CCIPSender_Unsafe": {
			"abi": [
				{
					"inputs": [
						{
							"internalType": "address",
							"name": "_link",
							"type": "address"
						},
						{
							"internalType": "address",
							"name": "_router",
							"type": "address"
						}
					],
					"stateMutability": "nonpayable",
					"type": "constructor"
				},
				{
					"inputs": [],
					"name": "send",
					"outputs": [],
					"stateMutability": "nonpayable",
					"type": "function"
				}
			],
			"devdoc": {
				"kind": "dev",
				"methods": {},
				"version": 1
			},
			"evm": {
				"assembly": "    /* \"CCIPSender_Unsafe.sol\":344:630  contract CCIPSender_Unsafe {... */\n  mstore(0x40, 0x80)\n    /* \"CCIPSender_Unsafe.sol\":416:584  constructor (address _link, address _router){... */\n  callvalue\n  dup1\n  iszero\n  tag_1\n  jumpi\n  0x00\n  dup1\n  revert\ntag_1:\n  pop\n  mload(0x40)\n  sub(codesize, bytecodeSize)\n  dup1\n  bytecodeSize\n  dup4\n  codecopy\n  dup2\n  dup2\n  add\n  0x40\n  mstore\n  dup2\n  add\n  swap1\n  tag_2\n  swap2\n  swap1\n  tag_3\n  jump\t// in\ntag_2:\n    /* \"CCIPSender_Unsafe.sol\":477:482  _link */\n  dup2\n    /* \"CCIPSender_Unsafe.sol\":470:474  link */\n  0x00\n  dup1\n    /* \"CCIPSender_Unsafe.sol\":470:482  link = _link */\n  0x0100\n  exp\n  dup2\n  sload\n  dup2\n  0xffffffffffffffffffffffffffffffffffffffff\n  mul\n  not\n  and\n  swap1\n  dup4\n  0xffffffffffffffffffffffffffffffffffffffff\n  and\n  mul\n  or\n  swap1\n  sstore\n  pop\n    /* \"CCIPSender_Unsafe.sol\":501:508  _router */\n  dup1\n    /* \"CCIPSender_Unsafe.sol\":492:498  router */\n  0x01\n  0x00\n    /* \"CCIPSender_Unsafe.sol\":492:508  router = _router */\n  0x0100\n  exp\n  dup2\n  sload\n  dup2\n  0xffffffffffffffffffffffffffffffffffffffff\n  mul\n  not\n  and\n  swap1\n  dup4\n  0xffffffffffffffffffffffffffffffffffffffff\n  and\n  mul\n  or\n  swap1\n  sstore\n  pop\n    /* \"CCIPSender_Unsafe.sol\":537:541  link */\n  0x00\n  dup1\n  sload\n  swap1\n  0x0100\n  exp\n  swap1\n  div\n  0xffffffffffffffffffffffffffffffffffffffff\n  and\n    /* \"CCIPSender_Unsafe.sol\":518:550  LinkTokenInterface(link).approve */\n  0xffffffffffffffffffffffffffffffffffffffff\n  and\n  0x095ea7b3\n    /* \"CCIPSender_Unsafe.sol\":551:557  router */\n  0x01\n  0x00\n  swap1\n  sload\n  swap1\n  0x0100\n  exp\n  swap1\n  div\n  0xffffffffffffffffffffffffffffffffffffffff\n  and\n    /* \"CCIPSender_Unsafe.sol\":559:576  type(uint256).max */\n  0xffffffffffffffffffffffffffffffffffffffffffffffffffffffffffffffff\n    /* \"CCIPSender_Unsafe.sol\":518:577  LinkTokenInterface(link).approve(router, type(uint256).max) */\n  mload(0x40)\n  dup4\n  0xffffffff\n  and\n  0xe0\n  shl\n  dup2\n  mstore\n  0x04\n  add\n  tag_6\n  swap3\n  swap2\n  swap1\n  tag_7\n  jump\t// in\ntag_6:\n  0x20\n  mload(0x40)\n  dup1\n  dup4\n  sub\n  dup2\n  0x00\n  dup8\n  gas\n  call\n  iszero\n  dup1\n  iszero\n  tag_9\n  jumpi\n  returndatasize\n  0x00\n  dup1\n  returndatacopy\n  revert(0x00, returndatasize)\ntag_9:\n  pop\n  pop\n  pop\n  pop\n  mload(0x40)\n  returndatasize\n  not(0x1f)\n  0x1f\n  dup3\n  add\n  and\n  dup3\n  add\n  dup1\n  0x40\n  mstore\n  pop\n  dup2\n  add\n  swap1\n  tag_10\n  swap2\n  swap1\n  tag_11\n  jump\t// in\ntag_10:\n  pop\n    /* \"CCIPSender_Unsafe.sol\":416:584  constructor (address _link, address _router){... */\n  pop\n  pop\n    /* \"CCIPSender_Unsafe.sol\":344:630  contract CCIPSender_Unsafe {... */\n  jump(tag_12)\n    /* \"#utility.yul\":88:205   */\ntag_14:\n    /* \"#utility.yul\":197:198   */\n  0x00\n    /* \"#utility.yul\":194:195   */\n  dup1\n    /* \"#utility.yul\":187:199   */\n  revert\n    /* \"#utility.yul\":334:460   */\ntag_16:\n    /* \"#utility.yul\":371:378   */\n  0x00\n    /* \"#utility.yul\":411:453   */\n  0xffffffffffffffffffffffffffffffffffffffff\n    /* \"#utility.yul\":404:409   */\n  dup3\n    /* \"#utility.yul\":400:454   */\n  and\n    /* \"#utility.yul\":389:454   */\n  swap1\n  pop\n    /* \"#utility.yul\":334:460   */\n  swap2\n  swap1\n  pop\n  jump\t// out\n    /* \"#utility.yul\":466:562   */\ntag_17:\n    /* \"#utility.yul\":503:510   */\n  0x00\n    /* \"#utility.yul\":532:556   */\n  tag_32\n    /* \"#utility.yul\":550:555   */\n  dup3\n    /* \"#utility.yul\":532:556   */\n  tag_16\n  jump\t// in\ntag_32:\n    /* \"#utility.yul\":521:556   */\n  swap1\n  pop\n    /* \"#utility.yul\":466:562   */\n  swap2\n  swap1\n  pop\n  jump\t// out\n    /* \"#utility.yul\":568:690   */\ntag_18:\n    /* \"#utility.yul\":641:665   */\n  tag_34\n    /* \"#utility.yul\":659:664   */\n  dup2\n    /* \"#utility.yul\":641:665   */\n  tag_17\n  jump\t// in\ntag_34:\n    /* \"#utility.yul\":634:639   */\n  dup2\n    /* \"#utility.yul\":631:666   */\n  eq\n    /* \"#utility.yul\":621:684   */\n  tag_35\n  jumpi\n    /* \"#utility.yul\":680:681   */\n  0x00\n    /* \"#utility.yul\":677:678   */\n  dup1\n    /* \"#utility.yul\":670:682   */\n  revert\n    /* \"#utility.yul\":621:684   */\ntag_35:\n    /* \"#utility.yul\":568:690   */\n  pop\n  jump\t// out\n    /* \"#utility.yul\":696:839   */\ntag_19:\n    /* \"#utility.yul\":753:758   */\n  0x00\n    /* \"#utility.yul\":784:790   */\n  dup2\n    /* \"#utility.yul\":778:791   */\n  mload\n    /* \"#utility.yul\":769:791   */\n  swap1\n  pop\n    /* \"#utility.yul\":800:833   */\n  tag_37\n    /* \"#utility.yul\":827:832   */\n  dup2\n    /* \"#utility.yul\":800:833   */\n  tag_18\n  jump\t// in\ntag_37:\n    /* \"#utility.yul\":696:839   */\n  swap3\n  swap2\n  pop\n  pop\n  jump\t// out\n    /* \"#utility.yul\":845:1352   */\ntag_3:\n    /* \"#utility.yul\":924:930   */\n  0x00\n    /* \"#utility.yul\":932:938   */\n  dup1\n    /* \"#utility.yul\":981:983   */\n  0x40\n    /* \"#utility.yul\":969:978   */\n  dup4\n    /* \"#utility.yul\":960:967   */\n  dup6\n    /* \"#utility.yul\":956:979   */\n  sub\n    /* \"#utility.yul\":952:984   */\n  slt\n    /* \"#utility.yul\":949:1068   */\n  iszero\n  tag_39\n  jumpi\n    /* \"#utility.yul\":987:1066   */\n  tag_40\n  tag_14\n  jump\t// in\ntag_40:\n    /* \"#utility.yul\":949:1068   */\ntag_39:\n    /* \"#utility.yul\":1107:1108   */\n  0x00\n    /* \"#utility.yul\":1132:1196   */\n  tag_41\n    /* \"#utility.yul\":1188:1195   */\n  dup6\n    /* \"#utility.yul\":1179:1185   */\n  dup3\n    /* \"#utility.yul\":1168:1177   */\n  dup7\n    /* \"#utility.yul\":1164:1186   */\n  add\n    /* \"#utility.yul\":1132:1196   */\n  tag_19\n  jump\t// in\ntag_41:\n    /* \"#utility.yul\":1122:1196   */\n  swap3\n  pop\n    /* \"#utility.yul\":1078:1206   */\n  pop\n    /* \"#utility.yul\":1245:1247   */\n  0x20\n    /* \"#utility.yul\":1271:1335   */\n  tag_42\n    /* \"#utility.yul\":1327:1334   */\n  dup6\n    /* \"#utility.yul\":1318:1324   */\n  dup3\n    /* \"#utility.yul\":1307:1316   */\n  dup7\n    /* \"#utility.yul\":1303:1325   */\n  add\n    /* \"#utility.yul\":1271:1335   */\n  tag_19\n  jump\t// in\ntag_42:\n    /* \"#utility.yul\":1261:1335   */\n  swap2\n  pop\n    /* \"#utility.yul\":1216:1345   */\n  pop\n    /* \"#utility.yul\":845:1352   */\n  swap3\n  pop\n  swap3\n  swap1\n  pop\n  jump\t// out\n    /* \"#utility.yul\":1358:1476   */\ntag_20:\n    /* \"#utility.yul\":1445:1469   */\n  tag_44\n    /* \"#utility.yul\":1463:1468   */\n  dup2\n    /* \"#utility.yul\":1445:1469   */\n  tag_17\n  jump\t// in\ntag_44:\n    /* \"#utility.yul\":1440:1443   */\n  dup3\n    /* \"#utility.yul\":1433:1470   */\n  mstore\n    /* \"#utility.yul\":1358:1476   */\n  pop\n  pop\n  jump\t// out\n    /* \"#utility.yul\":1482:1559   */\ntag_21:\n    /* \"#utility.yul\":1519:1526   */\n  0x00\n    /* \"#utility.yul\":1548:1553   */\n  dup2\n    /* \"#utility.yul\":1537:1553   */\n  swap1\n  pop\n    /* \"#utility.yul\":1482:1559   */\n  swap2\n  swap1\n  pop\n  jump\t// out\n    /* \"#utility.yul\":1565:1683   */\ntag_22:\n    /* \"#utility.yul\":1652:1676   */\n  tag_47\n    /* \"#utility.yul\":1670:1675   */\n  dup2\n    /* \"#utility.yul\":1652:1676   */\n  tag_21\n  jump\t// in\ntag_47:\n    /* \"#utility.yul\":1647:1650   */\n  dup3\n    /* \"#utility.yul\":1640:1677   */\n  mstore\n    /* \"#utility.yul\":1565:1683   */\n  pop\n  pop\n  jump\t// out\n    /* \"#utility.yul\":1689:2021   */\ntag_7:\n    /* \"#utility.yul\":1810:1814   */\n  0x00\n    /* \"#utility.yul\":1848:1850   */\n  0x40\n    /* \"#utility.yul\":1837:1846   */\n  dup3\n    /* \"#utility.yul\":1833:1851   */\n  add\n    /* \"#utility.yul\":1825:1851   */\n  swap1\n  pop\n    /* \"#utility.yul\":1861:1932   */\n  tag_49\n    /* \"#utility.yul\":1929:1930   */\n  0x00\n    /* \"#utility.yul\":1918:1927   */\n  dup4\n    /* \"#utility.yul\":1914:1931   */\n  add\n    /* \"#utility.yul\":1905:1911   */\n  dup6\n    /* \"#utility.yul\":1861:1932   */\n  tag_20\n  jump\t// in\ntag_49:\n    /* \"#utility.yul\":1942:2014   */\n  tag_50\n    /* \"#utility.yul\":2010:2012   */\n  0x20\n    /* \"#utility.yul\":1999:2008   */\n  dup4\n    /* \"#utility.yul\":1995:2013   */\n  add\n    /* \"#utility.yul\":1986:1992   */\n  dup5\n    /* \"#utility.yul\":1942:2014   */\n  tag_22\n  jump\t// in\ntag_50:\n    /* \"#utility.yul\":1689:2021   */\n  swap4\n  swap3\n  pop\n  pop\n  pop\n  jump\t// out\n    /* \"#utility.yul\":2027:2117   */\ntag_23:\n    /* \"#utility.yul\":2061:2068   */\n  0x00\n    /* \"#utility.yul\":2104:2109   */\n  dup2\n    /* \"#utility.yul\":2097:2110   */\n  iszero\n    /* \"#utility.yul\":2090:2111   */\n  iszero\n    /* \"#utility.yul\":2079:2111   */\n  swap1\n  pop\n    /* \"#utility.yul\":2027:2117   */\n  swap2\n  swap1\n  pop\n  jump\t// out\n    /* \"#utility.yul\":2123:2239   */\ntag_24:\n    /* \"#utility.yul\":2193:2214   */\n  tag_53\n    /* \"#utility.yul\":2208:2213   */\n  dup2\n    /* \"#utility.yul\":2193:2214   */\n  tag_23\n  jump\t// in\ntag_53:\n    /* \"#utility.yul\":2186:2191   */\n  dup2\n    /* \"#utility.yul\":2183:2215   */\n  eq\n    /* \"#utility.yul\":2173:2233   */\n  tag_54\n  jumpi\n    /* \"#utility.yul\":2229:2230   */\n  0x00\n    /* \"#utility.yul\":2226:2227   */\n  dup1\n    /* \"#utility.yul\":2219:2231   */\n  revert\n    /* \"#utility.yul\":2173:2233   */\ntag_54:\n    /* \"#utility.yul\":2123:2239   */\n  pop\n  jump\t// out\n    /* \"#utility.yul\":2245:2382   */\ntag_25:\n    /* \"#utility.yul\":2299:2304   */\n  0x00\n    /* \"#utility.yul\":2330:2336   */\n  dup2\n    /* \"#utility.yul\":2324:2337   */\n  mload\n    /* \"#utility.yul\":2315:2337   */\n  swap1\n  pop\n    /* \"#utility.yul\":2346:2376   */\n  tag_56\n    /* \"#utility.yul\":2370:2375   */\n  dup2\n    /* \"#utility.yul\":2346:2376   */\n  tag_24\n  jump\t// in\ntag_56:\n    /* \"#utility.yul\":2245:2382   */\n  swap3\n  swap2\n  pop\n  pop\n  jump\t// out\n    /* \"#utility.yul\":2388:2733   */\ntag_11:\n    /* \"#utility.yul\":2455:2461   */\n  0x00\n    /* \"#utility.yul\":2504:2506   */\n  0x20\n    /* \"#utility.yul\":2492:2501   */\n  dup3\n    /* \"#utility.yul\":2483:2490   */\n  dup5\n    /* \"#utility.yul\":2479:2502   */\n  sub\n    /* \"#utility.yul\":2475:2507   */\n  slt\n    /* \"#utility.yul\":2472:2591   */\n  iszero\n  tag_58\n  jumpi\n    /* \"#utility.yul\":2510:2589   */\n  tag_59\n  tag_14\n  jump\t// in\ntag_59:\n    /* \"#utility.yul\":2472:2591   */\ntag_58:\n    /* \"#utility.yul\":2630:2631   */\n  0x00\n    /* \"#utility.yul\":2655:2716   */\n  tag_60\n    /* \"#utility.yul\":2708:2715   */\n  dup5\n    /* \"#utility.yul\":2699:2705   */\n  dup3\n    /* \"#utility.yul\":2688:2697   */\n  dup6\n    /* \"#utility.yul\":2684:2706   */\n  add\n    /* \"#utility.yul\":2655:2716   */\n  tag_25\n  jump\t// in\ntag_60:\n    /* \"#utility.yul\":2645:2716   */\n  swap2\n  pop\n    /* \"#utility.yul\":2601:2726   */\n  pop\n    /* \"#utility.yul\":2388:2733   */\n  swap3\n  swap2\n  pop\n  pop\n  jump\t// out\n    /* \"CCIPSender_Unsafe.sol\":344:630  contract CCIPSender_Unsafe {... */\ntag_12:\n  dataSize(sub_0)\n  dup1\n  dataOffset(sub_0)\n  0x00\n  codecopy\n  0x00\n  return\nstop\n\nsub_0: assembly {\n        /* \"CCIPSender_Unsafe.sol\":344:630  contract CCIPSender_Unsafe {... */\n      mstore(0x40, 0x80)\n      callvalue\n      dup1\n      iszero\n      tag_1\n      jumpi\n      0x00\n      dup1\n      revert\n    tag_1:\n      pop\n      jumpi(tag_2, lt(calldatasize, 0x04))\n      shr(0xe0, calldataload(0x00))\n      dup1\n      0xb46300ec\n      eq\n      tag_3\n      jumpi\n    tag_2:\n      0x00\n      dup1\n      revert\n        /* \"CCIPSender_Unsafe.sol\":589:628  function send() public {... */\n    tag_3:\n      tag_4\n      tag_5\n      jump\t// in\n    tag_4:\n      stop\n    tag_5:\n      jump\t// out\n\n    auxdata: 0xa26469706673582212202114429493f35d944514574c82037c0fc94f1d5973231ef3e2370b01a0cd0a9064736f6c63430008130033\n}\n",
				"bytecode": {
					"linkReferences": {},
					"object": "608060405234801561001057600080fd5b5060405161036f38038061036f833981810160405281019061003291906101fe565b816000806101000a81548173ffffffffffffffffffffffffffffffffffffffff021916908373ffffffffffffffffffffffffffffffffffffffff16021790555080600160006101000a81548173ffffffffffffffffffffffffffffffffffffffff021916908373ffffffffffffffffffffffffffffffffffffffff16021790555060008054906101000a900473ffffffffffffffffffffffffffffffffffffffff1673ffffffffffffffffffffffffffffffffffffffff1663095ea7b3600160009054906101000a900473ffffffffffffffffffffffffffffffffffffffff167fffffffffffffffffffffffffffffffffffffffffffffffffffffffffffffffff6040518363ffffffff1660e01b8152600401610150929190610266565b6020604051808303816000875af115801561016f573d6000803e3d6000fd5b505050506040513d601f19601f8201168201806040525081019061019391906102c7565b5050506102f4565b600080fd5b600073ffffffffffffffffffffffffffffffffffffffff82169050919050565b60006101cb826101a0565b9050919050565b6101db816101c0565b81146101e657600080fd5b50565b6000815190506101f8816101d2565b92915050565b600080604083850312156102155761021461019b565b5b6000610223858286016101e9565b9250506020610234858286016101e9565b9150509250929050565b610247816101c0565b82525050565b6000819050919050565b6102608161024d565b82525050565b600060408201905061027b600083018561023e565b6102886020830184610257565b9392505050565b60008115159050919050565b6102a48161028f565b81146102af57600080fd5b50565b6000815190506102c18161029b565b92915050565b6000602082840312156102dd576102dc61019b565b5b60006102eb848285016102b2565b91505092915050565b606d806103026000396000f3fe6080604052348015600f57600080fd5b506004361060285760003560e01c8063b46300ec14602d575b600080fd5b60336035565b005b56fea26469706673582212202114429493f35d944514574c82037c0fc94f1d5973231ef3e2370b01a0cd0a9064736f6c63430008130033",
					"opcodes": "PUSH1 0x80 PUSH1 0x40 MSTORE CALLVALUE DUP1 ISZERO PUSH2 0x10 JUMPI PUSH1 0x0 DUP1 REVERT JUMPDEST POP PUSH1 0x40 MLOAD PUSH2 0x36F CODESIZE SUB DUP1 PUSH2 0x36F DUP4 CODECOPY DUP2 DUP2 ADD PUSH1 0x40 MSTORE DUP2 ADD SWAP1 PUSH2 0x32 SWAP2 SWAP1 PUSH2 0x1FE JUMP JUMPDEST DUP2 PUSH1 0x0 DUP1 PUSH2 0x100 EXP DUP2 SLOAD DUP2 PUSH20 0xFFFFFFFFFFFFFFFFFFFFFFFFFFFFFFFFFFFFFFFF MUL NOT AND SWAP1 DUP4 PUSH20 0xFFFFFFFFFFFFFFFFFFFFFFFFFFFFFFFFFFFFFFFF AND MUL OR SWAP1 SSTORE POP DUP1 PUSH1 0x1 PUSH1 0x0 PUSH2 0x100 EXP DUP2 SLOAD DUP2 PUSH20 0xFFFFFFFFFFFFFFFFFFFFFFFFFFFFFFFFFFFFFFFF MUL NOT AND SWAP1 DUP4 PUSH20 0xFFFFFFFFFFFFFFFFFFFFFFFFFFFFFFFFFFFFFFFF AND MUL OR SWAP1 SSTORE POP PUSH1 0x0 DUP1 SLOAD SWAP1 PUSH2 0x100 EXP SWAP1 DIV PUSH20 0xFFFFFFFFFFFFFFFFFFFFFFFFFFFFFFFFFFFFFFFF AND PUSH20 0xFFFFFFFFFFFFFFFFFFFFFFFFFFFFFFFFFFFFFFFF AND PUSH4 0x95EA7B3 PUSH1 0x1 PUSH1 0x0 SWAP1 SLOAD SWAP1 PUSH2 0x100 EXP SWAP1 DIV PUSH20 0xFFFFFFFFFFFFFFFFFFFFFFFFFFFFFFFFFFFFFFFF AND PUSH32 0xFFFFFFFFFFFFFFFFFFFFFFFFFFFFFFFFFFFFFFFFFFFFFFFFFFFFFFFFFFFFFFFF PUSH1 0x40 MLOAD DUP4 PUSH4 0xFFFFFFFF AND PUSH1 0xE0 SHL DUP2 MSTORE PUSH1 0x4 ADD PUSH2 0x150 SWAP3 SWAP2 SWAP1 PUSH2 0x266 JUMP JUMPDEST PUSH1 0x20 PUSH1 0x40 MLOAD DUP1 DUP4 SUB DUP2 PUSH1 0x0 DUP8 GAS CALL ISZERO DUP1 ISZERO PUSH2 0x16F JUMPI RETURNDATASIZE PUSH1 0x0 DUP1 RETURNDATACOPY RETURNDATASIZE PUSH1 0x0 REVERT JUMPDEST POP POP POP POP PUSH1 0x40 MLOAD RETURNDATASIZE PUSH1 0x1F NOT PUSH1 0x1F DUP3 ADD AND DUP3 ADD DUP1 PUSH1 0x40 MSTORE POP DUP2 ADD SWAP1 PUSH2 0x193 SWAP2 SWAP1 PUSH2 0x2C7 JUMP JUMPDEST POP POP POP PUSH2 0x2F4 JUMP JUMPDEST PUSH1 0x0 DUP1 REVERT JUMPDEST PUSH1 0x0 PUSH20 0xFFFFFFFFFFFFFFFFFFFFFFFFFFFFFFFFFFFFFFFF DUP3 AND SWAP1 POP SWAP2 SWAP1 POP JUMP JUMPDEST PUSH1 0x0 PUSH2 0x1CB DUP3 PUSH2 0x1A0 JUMP JUMPDEST SWAP1 POP SWAP2 SWAP1 POP JUMP JUMPDEST PUSH2 0x1DB DUP2 PUSH2 0x1C0 JUMP JUMPDEST DUP2 EQ PUSH2 0x1E6 JUMPI PUSH1 0x0 DUP1 REVERT JUMPDEST POP JUMP JUMPDEST PUSH1 0x0 DUP2 MLOAD SWAP1 POP PUSH2 0x1F8 DUP2 PUSH2 0x1D2 JUMP JUMPDEST SWAP3 SWAP2 POP POP JUMP JUMPDEST PUSH1 0x0 DUP1 PUSH1 0x40 DUP4 DUP6 SUB SLT ISZERO PUSH2 0x215 JUMPI PUSH2 0x214 PUSH2 0x19B JUMP JUMPDEST JUMPDEST PUSH1 0x0 PUSH2 0x223 DUP6 DUP3 DUP7 ADD PUSH2 0x1E9 JUMP JUMPDEST SWAP3 POP POP PUSH1 0x20 PUSH2 0x234 DUP6 DUP3 DUP7 ADD PUSH2 0x1E9 JUMP JUMPDEST SWAP2 POP POP SWAP3 POP SWAP3 SWAP1 POP JUMP JUMPDEST PUSH2 0x247 DUP2 PUSH2 0x1C0 JUMP JUMPDEST DUP3 MSTORE POP POP JUMP JUMPDEST PUSH1 0x0 DUP2 SWAP1 POP SWAP2 SWAP1 POP JUMP JUMPDEST PUSH2 0x260 DUP2 PUSH2 0x24D JUMP JUMPDEST DUP3 MSTORE POP POP JUMP JUMPDEST PUSH1 0x0 PUSH1 0x40 DUP3 ADD SWAP1 POP PUSH2 0x27B PUSH1 0x0 DUP4 ADD DUP6 PUSH2 0x23E JUMP JUMPDEST PUSH2 0x288 PUSH1 0x20 DUP4 ADD DUP5 PUSH2 0x257 JUMP JUMPDEST SWAP4 SWAP3 POP POP POP JUMP JUMPDEST PUSH1 0x0 DUP2 ISZERO ISZERO SWAP1 POP SWAP2 SWAP1 POP JUMP JUMPDEST PUSH2 0x2A4 DUP2 PUSH2 0x28F JUMP JUMPDEST DUP2 EQ PUSH2 0x2AF JUMPI PUSH1 0x0 DUP1 REVERT JUMPDEST POP JUMP JUMPDEST PUSH1 0x0 DUP2 MLOAD SWAP1 POP PUSH2 0x2C1 DUP2 PUSH2 0x29B JUMP JUMPDEST SWAP3 SWAP2 POP POP JUMP JUMPDEST PUSH1 0x0 PUSH1 0x20 DUP3 DUP5 SUB SLT ISZERO PUSH2 0x2DD JUMPI PUSH2 0x2DC PUSH2 0x19B JUMP JUMPDEST JUMPDEST PUSH1 0x0 PUSH2 0x2EB DUP5 DUP3 DUP6 ADD PUSH2 0x2B2 JUMP JUMPDEST SWAP2 POP POP SWAP3 SWAP2 POP POP JUMP JUMPDEST PUSH1 0x6D DUP1 PUSH2 0x302 PUSH1 0x0 CODECOPY PUSH1 0x0 RETURN INVALID PUSH1 0x80 PUSH1 0x40 MSTORE CALLVALUE DUP1 ISZERO PUSH1 0xF JUMPI PUSH1 0x0 DUP1 REVERT JUMPDEST POP PUSH1 0x4 CALLDATASIZE LT PUSH1 0x28 JUMPI PUSH1 0x0 CALLDATALOAD PUSH1 0xE0 SHR DUP1 PUSH4 0xB46300EC EQ PUSH1 0x2D JUMPI JUMPDEST PUSH1 0x0 DUP1 REVERT JUMPDEST PUSH1 0x33 PUSH1 0x35 JUMP JUMPDEST STOP JUMPDEST JUMP INVALID LOG2 PUSH5 0x6970667358 0x22 SLT KECCAK256 0x21 EQ TIMESTAMP SWAP5 SWAP4 RETURN 0x5D SWAP5 GASLIMIT EQ JUMPI 0x4C DUP3 SUB PUSH29 0xFC94F1D5973231EF3E2370B01A0CD0A9064736F6C6343000813003300 "
				},
				"gasEstimates": {
					"creation": {
						"codeDepositCost": "21800",
						"executionCost": "infinite",
						"totalCost": "infinite"
					},
					"external": {
						"send()": "122"
					}
				},
				"methodIdentifiers": {
					"send()": "b46300ec"
				}
			},
			"storageLayout": {
				"storage": [
					{
						"astId": 213,
						"contract": "CCIPSender_Unsafe.sol:CCIPSender_Unsafe",
						"label": "link",
						"offset": 0,
						"slot": "0",
						"type": "t_address"
					},
					{
						"astId": 215,
						"contract": "CCIPSender_Unsafe.sol:CCIPSender_Unsafe",
						"label": "router",
						"offset": 0,
						"slot": "1",
						"type": "t_address"
					}
				],
				"types": {
					"t_address": {
						"encoding": "inplace",
						"label": "address",
						"numberOfBytes": "20"
					}
				}
			},
			"userdoc": {
				"kind": "user",
				"methods": {},
				"version": 1
			}
		}
	}
}